:020000040000fa
:10000000f07f0020c9f10000f7bd000033c30000fd
:1000100000000000000000000000000000000000e0
:100020000000000000000000000000007bb10000a4
:1000300000000000000000007bb100007bb1000068
:100040007bb100007bb100007bb100007bb1000000
:100050007bb100007bb100007bb10000f117010013
:100060007bb100007bb100007bb100007bb10000e0
:100070007bb100007bb100007bb100007bb10000d0
:100080007bb100007bb100004d0c01007bb1000092
:100090007bb1000000000000000000007bb1000008
:1000a0007bb100007bb100007bb100007bb10000a0
:020000040000fa
:1000b000f8b5c046f8bc08bc9e4670470df8000075
:1000c000f8b5c046f8bc08bc9e467047e5f700008e
:020000040000fa
:0800d00044bc00000100000027
:020000040000fa
:1000d800f0b516001f00446a9db00490259d069651
:1000e8000797002c08d1102011f0a4fa049b58623d
:1000f800446084600460c460049b5b6a19680029da
:100108000bd05a68012393404a608b60049810f022
:100118009bfa0022049b5b6a1a60079b002b1cda7f
:1001280001232b607b005b080793079cba4b2200d6
:1001380019931a409a421cd1b84b249a1360069a14
:10014800b74b002a03d1240301d100f08cfd269a75
:10015800002a05d109330a9308e000232b60e4e75d
:100168001a0009320a920c33269a13600a981db0b5
:10017800f0bd069e079f00220023300039000ef0d4
:1001880013fa051e0ed00123249a1360a44b1a00fb
:100198000d320a92269a002ae8d01a0026990e32c1
:1001a8000a60e3e71aab01931bab009332003b00f4
:1001b80004980df0fdf8630005905b0d00d17fe019
:1001c8003a03984c120b14432100974a30001895b3
:1001d8009e180022954b01f01bfd954a954b04f0a3
:1001e800abf9954a954b01f0ebff040030000d0088
:1001f8000ef030fb924a934b04f09ef902000b007c
:100208002000290001f0dcff04000d000ef00efdb7
:10021800002203900023200029000ef0cbf90028cb
:100228000ed003980ef016fb0b00020029002000e8
:100238000ef0baf9030058425841039b1b1a039366
:1002480001231693039b162b0fd87f49db00c9188f
:1002580008684968069a079b0ef0c0f900284bd039
:10026800039b013b0393002316931a9b9e1b0023b9
:100278000b933300013b0c9304d501239b1b0b9379
:1002880000230c93039b002b38db039a0c9b9446aa
:1002980063440c9300230f920893229b0125092b9a
:1002a80000d991e0052b02dd0025043b2293229b17
:1002b800981e032800d991e011f0daf98284297692
:1002c8001a9b1b9a9e18614bf218202a0fdd203bbf
:1002d8000698f318d84040239b1a9c4020430ef000
:1002e8000bfd01235a4c013e0919189371e720238d
:1002f80006989b1a9840f2e71690b6e70b9b039a6c
:100308009b1a0b935342089300230f93c5e70123cd
:100318000e93239b002b65dd1f000d93049a546aee
:100328000022626004221100143199425fd9616889
:1003380004980ef001fb049b20605b6a1b680a931b
:100348000e2f00d9fce0002d00d1f9e0069b079c98
:1003580014931594039b002b00dc7de01a000f21f9
:10036800394b0a40d2009b185c681b6810931194a3
:10037800039b02241d11eb060ad5364b0d401a6a61
:100388005b6a1498159902f0a5fc0324069007915e
:10039800304e002d30d1109a119b0698079902f023
:1003a80099fc0690079171e00123239a0e939446d5
:1003b800039b63445f1c0d933b1eafdc0123ade739
:1003c8000023a5e70023f0e700230e952293013bc5
:1003d8000d931f000022122323929fe701230e93ff
:1003e800023bf5e701230d931f001a00f4e761684b
:1003f80052000131616096e701231d4208d0109830
:100408001199e4183268736804f096f81090119105
:100418006d100836bde7c0460000f07f0f270000ca
:10042800301801000000f03f01fcffff0000f83f1a
:1004380061436f63a787d23fb3c8608b288ac63fe2
:10044800fb799f501344d33fa0c900003204000039
:10045800000010fe680b0100039b0224002b15d03e
:10046800149815995d420f23c94a2b40db00d31815
:100478001a685b6804f060f8002306900791c54e7f
:100488002d11002d00d08be0002b8ad1169b002b5c
:1004980000d191e0069a079b109211931098119938
:1004a8000022bd4b0ef086f8002800d184e0002f12
:1004b80000d181e00d9b002b3edd10981199039b24
:1004c80000225e1eb54b04f037f8069007910d9d8b
:1004d800013420000ef0bef9069a079b04f02cf8b0
:1004e8000022af4b01f06cfe12901391129b139ceb
:1004f800ac4a10931194139b9c181194002d5ed153
:10050800069807990022a84b01f082fb109a230055
:10051800069007910ef062f8002800d000e3a34887
:100528001399844661440b0006980799109a0ef0b7
:1005380041f8002800d0e7e2149b159c0693079425
:100548001b9b002b00da56e1039a0e2a00dd52e1cc
:100558008f4bd2009b185c681b6808930994239bf7
:10056800002b00dbcee0002f00ddcbe000d0cee298
:100578000898099900228c4b03f0deff069a079b26
:100588000ef036f83e000897002800d0a3e20a9b38
:100598000a9a5d1c31231370039b013303939ee277
:1005a8000122154205d0a4183268736803f0c4ff0d
:1005b80001236d10083664e7039e3d0089e70a9a17
:1005c800691e521917920e9a714bc900002a4ad017
:1005d8005b181a685b680020754902f07bfb109a6b
:1005e800119b01f015fb0a9b10901191129306982c
:1005f80007990ef01bfb04000ef02cf902000b000b
:100608000698079901f004fb129b30345d1c1c709e
:10061800109a119b069007910df0ccff002865d128
:10062800069a079b00205c4901f0f2fa109a119b88
:100638000df0c0ff002800d0bde0179b9d4200d1ff
:100648007ae7109811990022544b03f075ff0022a5
:100658001090119106980799504b03f06dff129571
:1006680006900791c3e7591808684968109a119bc2
:1006780003f062ff109011910a9c179d0698079944
:100688000ef0d4fa12900ef0e5f802000b0006986e
:10069800079901f0bdfa129b069007913033237039
:1006a800179b01340022a34224d1414b1098119981
:1006b80001f086fd02000b00069807990df08effe9
:1006c800002800d077e0109a119b0020384901f0eb
:1006d8009ffa02000b00069807990df06bff00289f
:1006e80000d129e76b1e1a78302a01d003963fe023
:1006f8001d00f7e706980799284b03f01dff0690a1
:100708000791bbe70a9e089a099b0698079902f089
:10071800e1fa0ef08bfa04000ef09cf8089a099b97
:1007280003f00aff0b0002000698079901f070fa1f
:100738002300303333700a9b751ceb1a9f424bd150
:1007480002000b0001f03cfd06000f0002000b0048
:10075800089809990df02eff00282bd108980999bf
:1007680032003b000df020ff002801d0e30721d420
:10077800059904980ff068ff00232b70039b249ab7
:1007880001331360269b002b00d1efe41d60ede4dc
:10079800a0c90000680b01000000f03f00002440e1
:1007a80000001c400000c0fc000014400000c07c99
:1007b8000000e03f039e6b1e1a78392a06d10a9a78
:1007c8009a4207d130231370130001361a78013288
:1007d8001a708be71d00eee70022cf4b03f0acfe4a
:1007e80000220023069007912e000df0ddfe002860
:1007f80000d188e7bce70e9a002a00d187e0229a48
:10080800012a6edc189a002a67d0c44a9b18089df2
:100818000b9c0b9a0121d2180b920c9a0498d318ae
:100828000c9310f066ff0600002c0edd0c9b002bcd
:100838000bdd0c9a2300944200dd13000b9ae41a96
:10084800d21a0b920c9ad31a0c93089b002b1ed029
:100858000e9b002b5fd0002d11dd31002a0004987b
:100868000cf0eefe059a0100060004980af03cf927
:100878000599109004980ff0e7fe109b0593089bcc
:100888005a1b04d0059904980cf0dafe0590012152
:10089800049810f02eff0f9b0890002b3ddd1a00e6
:1008a800010004980cf0ccfe229b08900025012b37
:1008b8003bdc0025069bab4233d1079b1b03ab42b5
:1008c8002fd1199b079a13422bd00b9b012501337b
:1008d8000b930c9b01330c9323e036231a9a9b1a33
:1008e80095e7089b7d1eab4206db5d1b002f0bdaec
:1008f8000b9bdc1b00238ce7089b0895ea1a0f9bcf
:1009080000259b180f93f1e70b9c3b0081e7089d9e
:100918000b9c0e9e88e7089ab4e7229b0025012bc2
:10092800c7dd0f9b0120002b0bd0089b089a1b6981
:100938000f9303339b00d31858680ff01ffe202332
:10094800181a0c9bc0181f23184000d1abe02023b5
:100958001b1a042b00dc9be01c23181a0b9b241881
:100968001b180b930c9b1b180c930b9b002b05dd82
:100978001a00059904980cf012fe05900c9b002ba8
:1009880005dd1a00089904980cf009fe0890169bda
:10099800002b00d189e0089905980ff06efe002819
:1009a80000db82e0039b0a22013b039305990023a5
:1009b80004980df09ffe0e9b0590002b00d15be183
:1009c800002331000a2204980df094fe0d9b0600c6
:1009d800002b02dc229b022b6ddc002c05dd310094
:1009e800220004980cf0dbfd06003000002d11d029
:1009f800716804980df0a0ff3100040033690c31d0
:100a08009a1c92000c3010f062fe0122210004981a
:100a18000cf0c5fd0d9f0a9b013f0b93db193700b6
:100a280006000f93089905980af028fc39000d90e4
:100a3800040005980ff021fe32000e9008990498e2
:100a48000bf046ff01230c93c36830340500002bdc
:100a580004d1010005980ff010fe0c9029000498ad
:100a68000ff0f2fd0c9b229a134300d089e001237a
:100a7800069a134200d084e0392c00d1a3e00e9be3
:100a8800002b01dd0d9c31340b9b5d1c1c7027e095
:100a9800042b00d169e70b9a1c33d2180b920c9add
:100aa800e418d31860e70300f5e7002f3cdc229b2d
:100ab800022b39dd0d970d9b002b0cd108990522cf
:100ac80004980df017fe0890010005980ff0d5fd69
:100ad800002800dd5be5239b0a9ddb430393002789
:100ae800089904980ff0b0fd002e00d140e6002fc1
:100af80005d0b74203d0390004980ff0a5fd3100a6
:100b080004980ff0a1fd33e608952e00e3e70023d3
:100b180008931e00dfe7c0460000244033040000ad
:100b2800039608952e0032e50e9b0d97002b00d0fa
:100b380053e70a9d089905980af0a0fb0a9b3030f4
:100b48000d9a287001350400eb1a9a4278dc151ebc
:100b580000dc012500270a9b5d19059901220498ec
:100b68000cf01dfd089905900ff087fd00282fdc7b
:100b780001d1e3072cd46b1e1a78302ab0d11d009e
:100b8800f9e70e9b002b07db1d00229b1d4326d196
:100b98000123069a134222d10c9b002b00dc73e739
:100ba8000599012204980cf0fafc089905900ff0b9
:100bb80064fd002804dc00d066e7e30700d463e79f
:100bc800392c00d05ee70b9b0b9a5d1c3923137000
:100bd8006b1e1a78392a3bd001321a7080e70b9bba
:100be80001330d930c9b002b05dd392cebd00d9dab
:100bf80001340b9b4ae70b9b0f9a0d9d1c70934287
:100c0800abd000230a22059904980df073fd002348
:100c180005900a2239000498b74206d10df06afd02
:100c2800070006000d9b0b93fce60df063fd3100f9
:100c3800070000230a2204980df05cfd0600f1e786
:100c480000230a22059904980df054fd059071e7d8
:100c58000a9a9a4205d1039b0133039331231370f7
:100c68003ee71d00b4e7269a0a930833002a01d00c
:100c7800fff77afafff77afa0d9b002b00dd58e7a9
:0c0c8800229b022b00dc54e715e7c0465d
:020000040000fa
:100c9400f0b5de4657464e464546e0b599b013904a
:100ca4000c001500009313a80ef03cfb0b23002846
:100cb40013db8300ba4a9b58002b01d000221a7020
:100cc400b84b4000c75c18184678002c0dd038008b
:100cd40010f084fd0323c20709d5180019b03cbce9
:100ce40090469946a246ab46f0bdaf4cefe70a23c7
:100cf4004207f2d463681793002b16d0179b5a1e31
:100d0400aa498a421bd90123179363780193013bb3
:100d1400012b01d901230193a368591ea34a9142cf
:100d240010d81a0757d102930fe017aa03213800ed
:100d34000ef024ff0028e1d001231793e5e71a42bf
:100d4400e1d1e2e780239b000293e368802252040e
:100d540000218b46934203d85a1e134200d19b466e
:100d6400009b5b0a9a4611235246002ab5d0002df7
:100d740000d1c4e22378984600231693002e2ed087
:100d840001230022290038000ff072fe01230028fd
:100d9400a3d1ff33ff33eb5c1b02ff225200aa5c9a
:100da4001a43834912b20e238a4296d1042e94d850
:100db4003401af34ff342c192279002a00d18ce796
:100dc4002000083010f0bdfb039020000c3010f020
:100dd400b8fb169018e080239b000293b5e716aa8f
:100de400012138000ef0cafe0123002800d074e768
:100df4000023039343461b0706d4169b3f2b03d9ba
:100e04003f3b16933f230393169b99460e234a4672
:100e14007f2a00d861e7022342461a400c9226d06a
:100e24000123424613405a42534102330493019b27
:100e340008935b465b0a0693802b01d980230693b3
:100e44004b461b0b1193029b5b015b0a1a00129326
:100e54004b465b0c0b93179b591e0e915b420d93f3
:100e64000f92b3464b46b94610951f006ae213230e
:100e74004246d20700d430e702230493d7e7069d05
:100e8400032304935de2069b1d1e0fd10b9b002bd5
:100e940035d0484b043302252a000b99914205d3df
:100ea4006d0002339a1e1288002af6d129003800f8
:100eb4000cf0e2ff8300404a944663445b0a0793c4
:100ec4003e4b9c4660443e4b984200d919e2039b3a
:100ed40020330593079e089a56439c4666440e9b0e
:100ee4009c190d9b1c40a41b00230a9320231b194f
:100ef4000993059b9c46a4446346059374e201252b
:100f0400d4e7012535e20323584301304008c018d3
:100f14000123049337e20f9b0a930123e7e7294b4c
:100f2400984215d8069b002b00d0eee16d0800d046
:100f340007e20e23d1e6244b984249d8069b002ba6
:100f440000d0e4e16d00802d00d8fae10e23c4e660
:100f54004f465e46ab460400109d049b012b3cd1da
:100f6400194a0e23904200d9b7e68022920000214c
:100f7400280010f071fc0b2214492031280010f0d5
:100f84003dfb0023eb7202232b735b466b73099ac0
:100f9400aa73130aeb736b461b792b74029b3ae01a
:100fa40098230020ec030020d0170100ff7f0000ed
:100fb40055aaffffc0170100070200000a00ffff47
:100fc400fffffe0ff5ff0000f50f000030f50000f5
:100fd4004f465e46ab460400109d802292000021dd
:100fe400280010f039fc0b22cc492031280010f0e5
:100ff40005fb0023eb7202232b735b466b73099a88
:10100400aa73130aeb736b461b792b74049b032b93
:1010140000d190e0029b6b741b0aab741699c04b11
:10102400994200d989e0e974090a2975f8236b7596
:101034003f232b7600236b76ff22aa76eb762800db
:101044001c30039910f0a2fb049b032b7ad110f0ff
:10105400d7fc01002800433010f098fb280024300e
:10106400079910f093fb28002c30022110f08efb1e
:101074000123994630234a46ea5400233122ab54d3
:1010840006213222a9543322ab5480224023ea544d
:1010940029224223ea541322a0492c312800473044
:1010a40010f0acfa5522ff235b00ea54aa22013364
:1010b400ea544b46039a290038000ff089fb4b464b
:1010c400002800d009e6039b9a1d0123290038005b
:1010d4000ff07efb802292000021280010f0bcfb60
:1010e4009049280010f052fb2800e530ff308e496b
:1010f40010f04cfb611e2800e930ff3010f046fb75
:101104002800ed30ff30022110f040fb5522ff2370
:101114005b00ea54aa220133ea54039ce21d012332
:10112400290038000ff054fb621c01232900380009
:101134000ff04efb2fe000236de72800203010f065
:1011440025fb73e710f05cfc01002800273010f049
:101154001dfb079aaa75130aeb7580222423ea540f
:1011640029222623ea5413226c49403128002b30cb
:1011740010f044fa5522ff235b00ea54aa220133fb
:10118400ea540123039a290038000ff021fb0123bc
:10119400002800d0a1e5009b5a0a52020021280031
:1011a40010f05afb049b012b59d1604b019300248e
:1011b400b1462600089b9e4254d34e46049b032b03
:1011c40001d00a9b9b46534600935c46b1462e00d1
:1011d4002500544500d9009d2b00059a9346310003
:1011e40038000ff0f5fa002800d094e0dc46ac4457
:1011f40063460593641bebd135004e46049a032adb
:1012040069d0474b06241699994202d8022a64d021
:101214000124002e63d001230022290038000ff09e
:1012240027fc0123002800d057e5731e1b01eb188f
:10123400c333ff331c7001230022290038000ff050
:10124400c7fa0123002800d047e500221100380026
:101254000ef094fc0300581e8341dbb23de50823e5
:101264005b42a3e7049b032b13d1082149422800c6
:1012740010f08cfa281d0121494210f087fa280049
:1012840008302b4910f082fa079c534602930095cc
:1012940019e00199280010f079faf5e72b00059a76
:1012a400009938000ff094fa002832d1802292007d
:1012b4000021009810f0d0fa059b9c46ac4463468c
:1012c4000593641b04d025005445e7d9029de5e746
:1012d400009d01366ee70c249be7042499e74346fe
:1012e4001b07b2d4169b1493002315932b002200e2
:1012f40014a9380008f084f9031ea6d0ede41123e4
:10130400ebe40e23e9e40e23e7e40e23e5e40e23e5
:10131400e3e40123e1e40123dfe4c04630f5000007
:10132400ffff00005252614172724161f8ffff00f9
:10133400ffffff0f0c9b002b00d180e0069d0323d1
:1013440004930695049b032b00d19ce5069b1d1e6c
:101354000fd11199002900d1d3e53a4b1a1d02256a
:101364000423994205d36d000232931e1b88002b7f
:10137400f7d1290038000cf07ffd334b984200d898
:10138400c1e502304000314b9c466044430a079358
:10139400039a01320592089e5e4394466644129b6a
:1013a4009c4666440e9bf4180d9b1c40a41b049b96
:1013b400032b00d1afe5089920000cf099fd01231f
:1013c4000993002905d0013c039b023305930223b2
:1013d4000993089920000cf04ffd079b9c46844418
:1013e400634607930f9b0a932b01039a9b1a9e193a
:1013f400b74288d3099bfb1a089a07994a43981a5b
:101404000a9bc01a29000cf037fd049b032b00d162
:1014140085e5049b022b00d09ae50d4b984200d839
:1014240089e5069b002b85d16d00402d89d90c9b45
:10143400002b00d023e5802d83d90e234de40e2309
:101444004be4c046b0170100f50f0000ff01000097
:04145400f5ff0000a0
:020000040000fa
:10145800f0b587b004000d000378002b00d1cde370
:10146800c8004018c000db490918e623e35c0133d3
:10147800dab20f2a00d9c1e39300d74ad3589f465e
:10148800eb005b19db00d34ad3185b7c002b00d040
:10149800b4e31100eb005a19d2008a18a06c50640a
:1014a800012555747123e15ce36e1b68606e9847f3
:1014b800e623e554f423e058002804d010f0c4f8db
:1014c8000022f423e2508823e058002800d195e355
:1014d80010f0baf800228823e2508fe37123e15c10
:1014e800e36e5b68606e9847002800d186e371233d
:1014f800e15ce36e1b69606e98477223e054022238
:10150800e623e2547ae3b34fee007319db00fb18cd
:10151800433300221a7000236422b0480df0a8fe5d
:101528007619f600be19f063431c00d166e3032266
:10153800e623e25462e3eb005b19da00a54b9b1843
:1015480043331b78002b00d158e31300a14ad3186a
:1015580001225242da637023e35ca16e7222a25c1c
:101568000492082203920022029201927122a25c44
:101578000092ce6900220021206eb0476065431cae
:101588003ed08022ce23e25406222300ce335a7066
:1015980000229a700122da7000221a715a71082208
:1015a8009a710022da7101222271220073322261bb
:1015b800e36008236361002323620422e623e254e4
:1015c80021000c31a36edb689847002800d115e391
:1015d800ff22e623e254606da36e1b6a9847804b96
:1015e8001b68002b04d07e4a5268002101209847ce
:1015f800eb005d19ed00774b5d1900236b74fde27c
:10160800ff22e623e254764b1b68002b04d0744a71
:101618005268002101209847eb005d19ed006d4be1
:101628005d1900236b74e9e21823e356002b1ed0e2
:1016380000dbe3e2a36e1b6a606d9847eb005d195f
:10164800ed00644b5d1900236b74e723e35c022b08
:1016580014d9ff22e623e254614b1b68002b00d10a
:10166800cce25f4a5268002101209847c6e2052271
:10167800e623e2540022e723e254bfe20133e722e3
:10168800a3540022e623e254b8e208000ff0c8fe93
:101698005c23e0540022ce23e25405212300ce33fc
:1016a800597080b298700021d97019715971997167
:1016b800d97121008c312161e360626122620622c6
:1016c800e623e2548039a36edb68606d98470028f2
:1016d80000d193e2ff22e623e254606da36e1b6af9
:1016e80098473f4b1b68002b04d03d4a52680021a5
:1016f80001209847eb005d19ed00364b5d1900237a
:101708006b747be21823e356002b1ed000db75e2d6
:10171800a36e1b6a606d9847eb005d19ed002d4bb9
:101728005d1900236b74e723e35c022b47d9ff2282
:10173800e623e2542a4b1b68002b00d15ee2284abc
:10174800526800210120984758e2a36e1b6a606d19
:1017580098470022e723e2547023e35c5c21615c34
:10176800a06e7226a65d04967a26a65d039602925e
:1017780001927122a25c0092c6690022206eb047d5
:101788006065431c03d00722e623e25436e2a06cce
:101798000ef0aef9ff22e623e254114b1b68002b32
:1017a80007d0eb005d19ed000a4b5d1900236b743f
:1017b80024e20b4a5268190001209847f1e70133e7
:1017c800e722a354a06c0ef093f90022e623e2541a
:1017d80014e2c04608220020c8fd0000e113010001
:1017e80050230020d34fee007319db00fb1843335e
:1017f80000221a7000233222cf480df039fd7619e5
:10180800f600be19f063431c00d1f7e10822e62375
:10181800e254f3e1eb005b19da00c64b9b18433343
:101828001b78002b00d1e9e1c24b9d1801235b42d4
:10183800eb630922e623e254e0e17323e25c8021b2
:10184800ce23e15406212300ce335970002199702c
:101858000121d97000211971597191b29971002132
:10186800d971210073312161e36062610023236231
:101878000a22e623e2546739a36edb68606d984755
:10188800002800d1bae1ff22e623e254606da36e7e
:101898001b6a9847a94b1b68002b04d0a74a5268bb
:1018a800002101209847eb005d19ed00a14b5d195f
:1018b80000236b74a2e11823e356002b1ed000db33
:1018c8009ce1a36e1b6a606d9847eb005d19ed0003
:1018d800984b5d1900236b74e723e35c022b1ad93c
:1018e800ff22e623e254954b1b68002b00d185e1cb
:1018f800924a52680021012098477fe10b22e62393
:10190800e2540023e722a3548422a15ccc22a154f0
:10191800e822a35472e10133e722a354a06c0ef02d
:10192800e7f80022e623e25468e1e823e25c80213c
:10193800ce23e15406212300ce3359709a70022237
:10194800da7000221a715a7109229a710022da712a
:1019580022008c322261e360092363610023236241
:101968000c22e623e25421000c31a36edb68606d83
:101978009847002800d141e1ff22e623e254606d38
:10198800a36e1b6a98476d4b1b68002b04d06b4aeb
:101998005268002101209847eb005d19ed00654b66
:1019a8005d1900236b7429e11823e356002b1ed020
:1019b80000db23e1a36e1b6a606d9847eb005d199d
:1019c800ed005c4b5d1900236b74e723e35c022b8d
:1019d80014d9ff22e623e254584b1b68002b00d190
:1019e8000ce1564a526800210120984706e10d2271
:1019f800e623e2540022e723e254ffe00133e72222
:101a0800a3540022e623e254a06c0ef071f8f5e02e
:101a180023008c339a78de783602164330000ff0b4
:101a280009fe8823e050002844d0e823e25c1933fb
:101a3800ff339c4662448021ce23e15406212300d3
:101a4800ce3359709a70120ada7000221a715a71dc
:101a58009e71320ada712061e360666100232362b5
:101a68000e22e623e25421000c31a36edb68606d80
:101a78009847002800d1c1e0ff22e623e254a36e74
:101a88001b6a606d98478826a0590ff0ddfd00237a
:101a9800a3512a4b1b68002b04d0284a5268002106
:101aa80001209847eb005d19ed00224b5d190023da
:101ab8006b74a3e0ff22e623e254606da36e1b6af9
:101ac80098471e4b1b68002b04d01c4a5268002103
:101ad80001209847eb005d19ed00164b5d190023b6
:101ae8006b748be01823e356002b29d000db85e0cc
:101af800a36e1b6a606d9847eb005d19ed000d4bf6
:101b08005d1900266e74882560590ff09dfd665199
:101b1800e723e35c022b5dd9ff22e623e254074b5f
:101b28001b68002b6ad0054a52680021012098479b
:101b380064e0c04608220020e11301005023002081
:101b48000022e723e2548823e65830000af028fdf3
:101b5800002821d03379052b1ed8e822a35c013355
:101b6800dbb2a354cc22a25c9a4211d80f22e623fe
:101b7800e25400222271eb005d19ed00224b5d1941
:101b88006a74882560590ff05ffd0023635135e0c2
:101b98000b22e623e254f4e7ff22e623e254a36e85
:101ba8001b6a606d98478826a0590ff04dfd0023e9
:101bb800a351164b1b68002b04d0144a526800210d
:101bc80001209847eb005d19ed000f4b5d190023cc
:101bd8006b7413e00133e722a3540022e623e25496
:101be800a06c0df085ff09e00ff068fd01235b4252
:101bf8006365002804d1fe22e623e25407b0f0bd55
:101c08000ff000fff7e7c04608220020502300200d
:020000040000fa
:101c1800f7b50d0009036c00ed0f0095490a450f53
:101c280029431d035e00c700d80f6b0a550f2b43cd
:101c3800c14d640d760dd200ae4203d11d0084461d
:101c4800154302d101254540ac46009da01bac457b
:101c580000d036e1002861dd002e25d11d00154396
:101c680000d196e2461e002e19d1ba18ba42a441f4
:101c7800c91864420919170001240b0200d4bee0f8
:101c8800ad4b01349c4200d180e2ac487b08014056
:101c9800012007401f43c80707434908afe0a64d86
:101ca800a84209d1a44caae0a34dac4200d1a6e0b9
:101cb800802506002d042b43382e2adc1f2e17dc26
:101cc80020201d00801b8540ac4615000190f54082
:101cd800604605430198f3408240501e82411543f7
:101ce800ed195b18bd428941494259182f00c4e7d4
:101cf80030001d002038c5400020202e03d0402091
:101d0800861bb34018000243501e8241154300232e
:101d1800e6e71a4315006a1e9541f8e7002850d0f7
:101d2800002c14d10c003c4300d128e2c443002c01
:101d380007d1bf189742a441c91864420919340051
:101d48009be77d48864209d119001700aae77a4c1b
:101d5800a642f9d04442802000040143382c2bdcf1
:101d68001f2c17dc2025281b01900800019de1404d
:101d7800a840844638006546e0402843019daf40ae
:101d88007d1eaf413843871897429241c918524285
:101d98008918d4e720000d002038c5402800002508
:101da800202c03d040252c1ba1400d002f437d1e65
:101db800af4138430021e6e70f433800471eb841da
:101dc800f8e7661c75056d0d012d00dd69e008005a
:101dd8003843002c49d1002800d1d3e11800104322
:101de8000dd0ba18ba42b641c9188023764289196b
:101df8001b041700194202d00124504b19407b07dd
:101e080009d00f233b40042b05d03b1dbb42bf41eb
:101e18007f42c9191f000b0206d5474b01349c426b
:101e280000d1c3e1454b1940434b4807ff083843ed
:101e3800c9089c4206d103000b4300d1b9e18023b5
:101e48001b031943002709033b0d1b05090b194305
:101e58003b4b6405194064080c43009b6400d90798
:101e680064080c43210003b0f0bd002800d16be7e3
:101e78001800104300d115e74807ff0807438020e2
:101e8800c9080003014207d0dc08044204d1d20883
:101e98005b0713431f002100780fc9000143ff00af
:101ea80000e7254ca64200d16fe1ba18c918ba421a
:101eb8009b415b42cb18df0752081743590834008f
:101ec8009de700285ddd002e3cd11d00154300d1a3
:101ed8005fe1461e002e0ed1ba1a9742bf41c91ab9
:101ee8007f42c91b012417000b0200d487e749026f
:101ef8004d0a3e00f9e0104da84200d1d2e6382e36
:101f08003adc1f2e27dc20201d00801b8540ac46b4
:101f180015000190f540604605430198f340824062
:101f2800501e824115437d1bcb1aaf42894149425d
:101f3800591a2f00d8e7c046ff070000ffff7fffb0
:101f4800ffff0f809c4dac4200d158e780252d043f
:101f58002b430600d3e730001d002038c540002081
:101f6800202e03d04020861bb34018000243501e89
:101f7800824115430023d6e71a4315006a1e95418e
:101f8800f8e700284dd0002c17d10c003c4300d1b5
:101f980001e1c443002c09d1d71bba429241591a16
:101fa80063465242891a340000939de7824886426c
:101fb8000ad119001700804c45e07f4ca642f8d0a2
:101fc8004442802000040143382c25dc1f2c11dcfe
:101fd8002025281b00900800009de140a84005002e
:101fe8003800e0402843009daf407d1eaf41384394
:101ff800171ad2e720000d002038c5402800002518
:10200800202c03d040252c1ba1400d002f437d1e02
:10201800af4138430021ebe70f433800471eb84172
:10202800f8e7601c4005400d01284cdc18000d0045
:1020380010433d43002c24d1002d07d1071e00d1a9
:10204800ade01900170063460093d8e6002800d1d8
:10205800d5e6bd1aaf42b641c81a7642801b802623
:102068003604304206d0d71bba429241591a52421e
:10207800891ae8e72f00074300d190e001002f00fc
:10208800bde6002d07d1071e00d18be0190063467d
:102098001700009306e6002800d103e64807ff086a
:1020a80007438020c9080003014200d1f4e6dc0898
:1020b800044200d0f0e6d2085b0713431f006346d2
:1020c80021000093e8e6be1ab7428041cd1a40428b
:1020d8002d1a8020000405422dd0d61bb242ad41f6
:1020e800591a63466d424d1b0093002d29d02800d4
:1020f8000ef058f80300083b1f2b27dc2022310084
:102108009e40d21a9d40d14037000d439c4232dc9c
:102118001c1b661c1f2e1edc20233a0029009b1b5b
:102128009940f2409f400a43791e8f412900f140af
:102138001743002463e637002f43d6d139003c000b
:102148002ee030000ef02ef82030d3e73500283886
:1021580085400027dae72a001f3ce2400023202eb2
:1021680003d040239e1b2b00b3401f437b1e9f417f
:1021780000211743dde71149e41a29403fe6190019
:1021880017009ce61900170039e60b4c00210f00d8
:1021980035e6040033e619001700340053e7390028
:1021a80000972ce68021044cc903f9e700210f00b1
:1021b8003ae6190046e6c046ff070000ffff7fff2a
:1021c800f7b50d0009036c00ed0f0095490a450f9e
:1021d8005e0029431d03db0f9c466b0a550f2b43fa
:1021e800009d640d760dc700d200a01b654500d088
:1021f80036e1002861dd002e25d11d00154300d1f0
:1022080097e2461e002e19d1ba18ba42a441c9183d
:1022180064420919170001240b0200d4bee0bd4b2b
:1022280001349c4200d181e2bb487b080140012077
:1022380007401f43c80707434908afe0b54da84208
:1022480009d1b44caae0b34dac4200d1a6e0802538
:1022580006002d042b43382e2adc1f2e17dc2020e5
:102268001d00801b8540ac4615000190f540604676
:1022780005430198f3408240501e82411543ed19f1
:102288005b18bd428941494259182f00c4e7300004
:102298001d002038c5400020202e03d04020861b7a
:1022a800b34018000243501e824115430023e6e75d
:1022b8001a4315006a1e9541f8e7002850d0002cf3
:1022c80014d10c003c4300d129e2c443002c07d1af
:1022d800bf189742a441c9186442091934009be702
:1022e8008c48864209d119001700aae7894ca642f2
:1022f800f9d04442802000040143382c2bdc1f2ce9
:1023080017dc2025281b01900800019de140a8400a
:10231800844638006546e0402843019daf407d1e55
:10232800af413843871897429241c91852428918d9
:10233800d4e720000d002038c54028000025202cb7
:1023480003d040252c1ba1400d002f437d1eaf411b
:1023580038430021e6e70f433800471eb841f8e745
:10236800661c75056d0d012d00dd69e00800384318
:10237800002c49d1002800d1d4e1180010430dd019
:10238800ba18ba42b641c9188023764289191b0483
:102398001700194202d001245f4b19407b0709d06e
:1023a8000f233b40042b05d03b1dbb42bf417f425e
:1023b800c9191f000b0206d5564b01349c4200d1a7
:1023c800c4e1554b1940534b4807ff083843c90827
:1023d8009c4206d103000b4300d1bae180231b03c2
:1023e8001943002709033b0d1b05090b19434b4be8
:1023f8006405194064080c43009b6400d90764080d
:102408000c43210003b0f0bd002800d16be7180091
:10241800404c1043c2d04807ff0807438020c90832
:102428000003014207d0dc08044204d1d2085b074c
:1024380013431f002100780fc9000143ff0000e784
:10244800344ca64200d170e1ba18c918ba429b416f
:102458005b42cb18df0752081743590834009de741
:1024680000285ddd002e35d11d00154300d160e147
:10247800461e002e0ed1ba1a9742bf41c91a7f4292
:10248800c91b012417000b0200d487e749024d0a33
:102498003e00fae01f4da84200d1d2e6382e33dcc8
:1024a8001f2e20dc20201d00801b8540ac46150017
:1024b8000190f540604605430198f3408240501e64
:1024c800824115437d1bcb1aaf4289414942591ab3
:1024d8002f00d8e70f4dac4200d15fe780252d04cf
:1024e8002b430600dae730001d002038c5400020e5
:1024f800202e03d04020861bb34018000243501ef4
:10250800824115430023dde71a4315006a1e9541f1
:10251800f8e7c046ff070000ffff7fffffff0f80bf
:1025280000284dd0002c17d10c003c4300d102e10b
:10253800c443002c09d1d71bba429241591a6346a9
:102548005242891a340000939de7834886420ad193
:1025580019001700804c45e07f4ca642f8d0444251
:10256800802000040143382c25dc1f2c11dc202599
:10257800281b00900800009de140a8400500380095
:10258800e0402843009daf407d1eaf413843171af5
:10259800d2e720000d002038c54028000025202c57
:1025a80003d040252c1ba1400d002f437d1eaf41b9
:1025b80038430021ebe70f433800471eb841f8e7de
:1025c800601c4005400d01284ddc18000d0010432b
:1025d8003d43002c24d1002d07d1071e00d1aee0c9
:1025e8001900170063460093d8e6002800d1d5e605
:1025f800bd1aaf42b641c81a7642801b80263604ff
:10260800304206d0d71bba429241591a5242891a0f
:10261800e8e72f00074300d191e001002f00bde655
:10262800002d07d1071e00d18ce019006346170062
:10263800009306e6484c002800d1afe64807ff089b
:1026480007438020c9080003014200d1f3e6dc08f3
:10265800044200d0efe6d2085b0713431f0063462d
:1026680021000093e7e6be1ab7428041cd1a4042e6
:102678002d1a8020000405422dd0d61bb242ad4150
:10268800591a63466d424d1b0093002d29d028002e
:102698000df088fd0300083b1f2b27dc20223100aa
:1026a8009e40d21a9d40d14037000d439c4232dcf7
:1026b8001c1b661c1f2e1edc20233a0029009b1bb6
:1026c8009940f2409f400a43791e8f412900f1400a
:1026d8001743002462e637002f43d6d139003c0067
:1026e8002ee030000df05efd2030d3e735002838ad
:1026f80085400027dae72a001f3ce2400023202e0d
:1027080003d040239e1b2b00b3401f437b1e9f41d9
:1027180000211743dde71149e41a29403ee6190074
:1027280017009be61900170038e60b4c00210f0034
:1027380034e6040032e619001700340052e7390085
:1027480000972be68021044cc903f9e700210f000c
:1027580039e6190045e6c046ff070000ffff7fff86
:020000040000fa
:10276800f0b597b00c00089209931c9d07900ef0e5
:10277800c3fe036818000e930ff07af8237e2668cc
:102788000b930f902b680722f1054bd59b189343a9
:102798001a0008322a601a685b68a264e36401229e
:1027a800e76ca36c7d000a936d080c935242c04bf2
:1027b8000a9829000df0fcfe002800d070e20122e2
:1027c800bb4b52420a9829000bf0fefe002800d0ad
:1027d80066e2002200230c9839000bf0ebfe00287b
:1027e80003d023002d2243331a70b24b1a1d0a92cc
:1027f8000b9a472a00d80a9303230027236104234e
:102808003d009e432660099b14aa00932100089b63
:10281800079809f01dfd431c00d007e10120404244
:1028280017b0f0bd0733b2e763685a1c00d0ace0bc
:102838000623636080230022db003343236065683e
:102848001092974205da802109067b181f002d2374
:10285800109320230b9a9a430d920d9b0322462b2b
:1028680004d0453b5842584102222d1814ab04931a
:1028780013ab039312ab029300923b0001950c9aa1
:102888000798fdf725fc0d9b0a90472b02d1f3070b
:1028980000d418e20a9b5e190d9b462b10d10a9ba7
:1028a8001b78302b0ad1002200230c9839000bf03a
:1028b8007bfe002802d101235d1b1295129bf6189e
:1028c800002200230c9839000bf06efe30220028fd
:1028d80069d01496149b0a9a9f1a0d9b472b0ad10c
:1028e800129bda1c03db6268934200dc8ce00b9bd2
:1028f800023bdbb20b930b9b129a652b68d8694697
:102908002c202300091809785033551e0d9319708f
:1029180002330c931295013b002d48da0125ad1abc
:102928002d221a70092d4bdd27260cabf618731ec5
:1029380028000a2111930af031fd731e30311970f5
:1029480028000a210af0e0fc0500092831dc2721cb
:10295800023e30350caa0c9b357089181a008e423d
:1029680029d30d9bd51aeb192361012f02dc2268ac
:10297800d20701d501332361109b002b00d142e718
:1029880023002d2243331a703de720220b999143ef
:10299800472900d04ee7002b00d04be7012348e73a
:1029a800591c14911a70149b9e42f9d892e72b2255
:1029b800b7e7119ebbe7327801361a700133cde7cd
:1029c80030230c9a30351370130002325d70c8e75b
:1029d8000b9b662b1ad16368002a0cdd2261002b41
:1029e80002d12168c90702d501339b182361129bc4
:1029f8000025a365c0e7002b03d1012221681142fd
:102a080000d09a1c2261f2e767230b93129bbb420a
:102a180005db22682361d207e9d50133e6e7012205
:102a2800002b01dc0222d21ad219ebe722685305e7
:102a380008d423690a9a08990798099da847431c4e
:102a480029d1ebe60b9b652b00d8d7e0a06ce16c95
:102a5800002200230bf0a8fd002839d0154a0123d5
:102a6800103208990798099da847431c00d1d5e65c
:102a7800129bbb4202db2368db070cd5099d0f9b29
:102a88000e9a08990798a8470025431c00d1c5e667
:102a98007b1e9d4210db236800259b0700d5f9e0cb
:102aa800149be068984200dbbae61800b8e6c04616
:102ab800ffffef7f6cfa0000220001231a32089909
:102ac8000798099eb047431c00d1a7e60135dfe708
:102ad800129b002b2ddc7e4a01231032089907989f
:102ae800099da847431c00d198e6129b002b04d1ee
:102af800002f02d12368db07cdd5099d0f9b0e9ac5
:102b080008990798a8470025431c00d186e6129b20
:102b18005b429d4201db3b008ce7220001231a3215
:102b280008990798099eb047431c00d176e60135fd
:102b3800ede7a56dbd4200dd3d00002d34dc00232e
:102b48000b93eb43db170c930c9ba66d0b9a2b4056
:102b5800f31a9a4231db129bbb423cdb2368db074a
:102b680039d4129abb1bbd1a9d4200dd1d00002df1
:102b78003adc00230a93eb43db170b93129b0b9a67
:102b8800fb1a2a409b1a0a9a9a4284da22000123e5
:102b98001a3208990798099eb047431c00d13de6b0
:102ba8000a9b01330a93e9e72b000a9a08990798c8
:102bb800099eb047431cc2d130e6220001231a32d5
:102bc80008990798099eb047431c00d126e60b9b3d
:102bd80001330b93b8e70f9b0e9a08990798099d44
:102be800a847431cbdd119e60a9b08999a1907986a
:102bf8002b00099eb047431cbbd10fe6012f02dc16
:102c080001231a4239d001230a9a08990798099e84
:102c1800b047431c00d101e60f9b0e9a089907980c
:102c2800099eb047431c00d1f8e5a06ce16c002375
:102c380000220bf0b9fc0023002815d10a9a7b1e4c
:102c4800013208990798099eb047431c11d1e5e560
:102c5800220001231a3208990798099eb047431c9d
:102c680000d1dbe50a9b01330a930a9a7b1e9a423c
:102c7800eedb22002b005032dde60a9ae1e7220063
:102c88000123193208990798099eb047431c00d1bf
:102c9800c4e50135e368149a9b1a9d42efdbffe611
:102ca8000c9a3b000c9839000df082fc002800d1ea
:102cb800bae5074b1a000c320a920b9a472a00d938
:102cc8009ae5083397e5149b0a9a9f1a08e6c046c6
:042cd8006cfa000092
:020000040000fa
:102cdc00f0b58bb0060004930400cb0f0d03480035
:102cec0000922d0b400d0393029346d0584b984203
:102cfc0067d08023720f1b04ed0013432b431f007e
:102d0c00544bf400c31800260193049b009a1d0336
:102d1c005800db0f2d0b400d069361d04c4b9842a5
:102d2c0000d181e08023520f1b041343ed001d439f
:102d3c00484a009b8218db009446002206980399af
:102d4c004140604604910199091ab00010430138c2
:102d5c0005910e2800d981e00ef092fc7500490215
:102d6c00ed0149023d024902ed01750075003d027d
:102d7c00ed01fc01fc01fc01e2012f00374327d0df
:102d8c00002d13d028000df00bfa01000b391c2973
:102d9c0011dc02001d2337003400083a5b1a954001
:102dac00df4094402f432c4b1b1aace730000df046
:102dbc00f7f92030e9e70300283b9e400024370058
:102dcc00f1e72e43371e07d02f00019003269ce716
:102ddc003c000197012698e734000190022694e705
:102dec00009b2b4327d0002d13d028000df0d8f9d1
:102dfc0001000b391c2911dc1d2302005b1a009900
:102e0c00083ad940009b954093400d43124a121a40
:102e1c0092e710000df0c4f92030e9e70300009da3
:102e2c00283b9d400023f1e7009b2b4307d0130068
:102e3c008446032282e71d009c4601227ee71d008a
:102e4c00844602227ae700252c00014b4ee1c04655
:102e5c00ff07000001fcffff0dfcffffaf4204d891
:102e6c0000d057e19c4200d254e1f90762081143ab
:102e7c00e0070c0001907f082d021a0e2a431b025a
:102e8c000293130c03936b4600921b880399380032
:102e9c0007930af0edff0600079b06900399380094
:102eac005e430bf021f8250c09040d43069fae423e
:102ebc0009d9009b013fed18ab4204d8ae4202d9b0
:102ecc00069fed18023fab1b0399180006930af0fe
:102edc00cfff079e05004643039906980bf004f8b4
:102eec00a4b209040c432a00a64208d9009b013a5b
:102efc00e418a34203d8a64201d9aa1ee4183b0445
:102f0c0002991343029a0904120c090c08920691b7
:102f1c00089d06989ab2a61b1c0c514360436a4349
:102f2c006c4312180d0caa18904202d98020400252
:102f3c002418100c09041204090c04195218a64286
:102f4c0005d31f00a64227d10199914224d20298a1
:102f5c00019984466144019181428941009849421a
:102f6c00091876185f1eb04204d315d1614601983a
:102f7c00814211d8b44203d80ed101998a420bd99f
:102f8c0002999f1e8c46019b634401938b429b418b
:102f9c0000995b425b18f618019b341b9b1a099332
:102fac00099a019b93429b415b42e41a009ba3420a
:102fbc0000d1d2e0039920000af05aff079d0600c9
:102fcc004543039920000af08fff099b09041c0c50
:102fdc000c430196a5420cd93300013b0193009b95
:102fec00e418a34205d8a54203d9b31e0193009b54
:102ffc00e418641b039920000af03aff079d0600b1
:10300c004543039920000af06fff6b460a04998c24
:10301c00330011438d4208d9009a013b89188a422a
:10302c0003d88d4201d9b31e8918019a089c120449
:10303c001a43100c93b24d1b16000699069a414385
:10304c005a43634360435b18140ce318994202d94a
:10305c00802149024018190c12041b04120c081888
:10306c009b18854204d3340085421bd1002b1bd006
:10307c00009a741e5519aa420fd8a84203d811d130
:10308c00029a9a420bd2029ab41e5100914292417a
:10309c00009e52429219ad180291854202d1029ab9
:1030ac00934201d001231c43059b564a9b18002bcd
:1030bc0056dd620709d00f222240042a05d0221dba
:1030cc00a242a44164423f191400fa0106d58022a1
:1030dc00d20094464c4b1f40059b63444b4a934291
:1030ec0000dd88e0e40879070c43fd0800212d037e
:1030fc000a0d12052d0b1543454a5b0515405b085f
:10310c002b43049a5b00d2075b0813432000190081
:10311c000bb0f0bd059a013a059200220192abe684
:10312c008022120317425ad0154258d12f001c008e
:10313c00069b029353e02f0016001c00069b049381
:10314c00022e58d0032e50d0012eadd100242500d4
:10315c002300cbe7039b0493f2e701246442a3e72b
:10316c000122d21a382af1dc1f2a21dc202320006c
:10317c009b1a39009c403d009940d040631e9c41f5
:10318c00d54001430c43630709d00f232340042b84
:10319c0005d0231da342a44164422d191c00802399
:1031ac001b042b402ad16907e4080c43ed089de76a
:1031bc001f214942cb1a3900d9400b000021202a8b
:1031cc0003d040218a1a390091400c43611e8c4176
:1031dc0000251c43d7e7802700243f030294802559
:1031ec00029b2d033d4304932fe6049ba1e700258e
:1031fc002c002b007ae70024250026e6002501236d
:10320c002c0073e7ff030000fffffffefe0700002a
:04321c00ffff0f8021
:020000040000fa
:10322000f0b585b00400c8224243da4b9b181a7ae5
:103230000e2a00d952e19300d74ad3589f46c82599
:1032400045432e003536d34ff61930000ef0a6f95f
:103250007a191300343301211970113300211970c8
:103260006b331b68d0683435ed190395cb4a029255
:1032700080220192242200920622310004f01efed8
:10328000032800d02ae1c8236343c24ce418022378
:10329000237223e1c8224243be4b9b1845331b785f
:1032a000002b00d11ae1bb4ca4180323237215e1b3
:1032b000c82545432e003536b64ff61930000df0bf
:1032c000f8ff7a19130034330121197011330021ea
:1032d00019706b331b68d0683435ed190395af4a0c
:1032e000029280220192082200920a22310004f008
:1032f000e5fd032800d0f1e0c8236343a54ce418a2
:1033000004232372eae0c8224243a24b9b184533b0
:103310001b78002b50d0c82242439e4b9b1846334b
:103320001b78002b3fd19b48140083181a00b03241
:103330001568343a182111701900803101220a6091
:1033400004310a6004310a60a97909026a79120419
:103350001143ea7911432a79120611431e0090366f
:103360003160aa7812026f783f043a43ef783a430b
:103370002d782d062a4301321d0094352a601f0046
:103380009837396019009c310a6031681a00a03200
:103390001160296804321160183a903420181060c6
:1033a00005221a729ae0c82343437a4ce418032397
:1033b000e3720923237291e0c8234343754ce41858
:1033c000e06802f03dfa89e0c82545432e00353615
:1033d000704ff61930000df0d2ff7a191300343314
:1033e000012119701133002119706b331b68d068eb
:1033f0003435ed190395694a029280220192c02268
:1034000000920622310004f059fd032866d1c8233a
:103410006343604ce418062323725fe0c8224243f2
:103420005c4b9b1845331b78002b32d0c82242439b
:10343000584b9b1846331b78002b21d1c82242439e
:10344000544b9b18b0331b685a78002a02d19b78e2
:103450007f2b0dd8c82262434e4b9b18b4330022f9
:103460001a70c82363434b4ce4180723237235e0da
:10347000c8224243474b9b18b43301221a70f0e72d
:10348000c8234343434ce4180523e3720923237202
:1034900024e0c82343433f4ce418e06802f0d0f92d
:1034a0001ce081b2c82343433a4ded1801233c4a46
:1034b000e8680cf0e9fc68603a4b1b78002b0fd1f0
:1034c000c8236343334ce418082323720123a372f7
:1034d0002200b5321370c4340023236005b0f0bd60
:1034e000304b99685b6820009847e9e7c82242435f
:1034f000284b9b18b6331b78002b1ed0c8224243a2
:10350000244b9b18a8331d68002d09d0c8224243c4
:10351000204b9b18ac331a68012149420220a8476e
:10352000c82363431b4ce41860680ef0e8f90123dc
:103530005b42636001232372d0e705f0fff9cde71a
:10354000c82545432e003536124ff61930000ef0cf
:103550001bf87a191300343301211970113300213b
:1035600019706b331b68d0683435ed1903950b4a1d
:10357000029280220192122200920622310004f06f
:103580009dfc0328aad1c8236343024ce4180a23f4
:103590002372a3e794000020080001003f170100f8
:1035a000c02200205c010020c8224243644b9b18cb
:1035b00045331b78002b42d0c8224243604b9b18f6
:1035c00046331b78002b33d1c82242435c4b9b18f7
:1035d000db7a5bb2052b1bd0c8224243584b9b18a9
:1035e000b0331b689a780f231340062b19d00d2196
:1035f000114216d0032b00d070e7c8234343504c30
:10360000e4182300b63301221a700823237265e7f9
:103610004b4ca4182300b43300221a7007232372e2
:103620005ce7c8236343464ce4180d23237255e737
:10363000c8234343424ce418ff2323724ee7c823b8
:1036400043433f4ce418e06802f0faf846e7c82329
:1036500043433b4ded182b00c03300221a7000236a
:103660006422290037480bf007febc352860431c54
:1036700000d133e7c8236343314ce4180c23237291
:103680002ce7c82242432e4b9b18c0331b78002bdb
:1036900000d123e72a4ca4180d232372bc340e3b1f
:1036a00023601be7c82545432e003536244ff61905
:1036b00030000ef04cf87b191a00343201211170e1
:1036c0001900453100220a70d8683435ed19039588
:1036d0001d4b0293802301930092002306223100a8
:1036e00004f0ecfb032800d0f8e6c8236343144c35
:1036f000e4180e232372f1e6c8224243104b9b18b4
:1037000045331b78002b13d0c82242430c4b9b1827
:1037100046331b78002b04d1094ca418e37a23729a
:10372000dce6c8234343064ce4180b232372d5e69a
:10373000c8234343024ce418e06802f081f8cde668
:0c37400094000020991201003f170100c6
:020000040000fa
:10374c00f0b5de4657464e464546e0b583b004001c
:10375c0003003533ff3301008531ff3100221a603d
:10376c0008339942fbd1002296235b00e254ac2330
:10377c00e358002b11d02300ac335b68db68002bc3
:10378c0017d02200ac32936020000af0e3fa230039
:10379c00ac339a689a235b00e250002500239846cc
:1037ac009b469a4601262e33ff3399462700cc3789
:1037bc001ae02500ac3528000df036f8a86000287a
:1037cc00e2d100229a235b00e250e6e7fb68002b73
:1037dc0002d04346002b19d02300bc33db68002bee
:1037ec0057d10123984601254b46e35c452b00d964
:1037fc00d3e1092e00ddd0e1002de7d04346002bac
:10380c0000d026e1fb68a846002bedd07b68262271
:10381c009a5c002a21d0013a26215a547b685a5cc2
:10382c00002a1ad001239c46e244fa685346db175f
:10383c00d10f504690424b41dbb298467b68db6916
:10384c00002b23d07b602300bc33db68002b6ed0b5
:10385c00002dc9d1092ec7dc1de0d96800290fd075
:10386c00b96020000af050f9002809d0f300e318e1
:10387c009a225200b96899500221043a99500136a3
:10388c007b682422995c26229954cbe7cc23e358fd
:10389c00d8e7012398464b46e35c0025452ba3d87b
:1038ac002300bc335b6826229a5c002a1dd0013aa7
:1038bc0026215a542300bc335b685a5c002a14d06e
:1038cc0001239c46e3442300bc33da685946cd17e8
:1038dc00d10f584690424d41edb25b68db69002b2d
:1038ec0022d02200bc3253607ee7d968002913d065
:1038fc002300bc33996020000af006f900280bd095
:10390c002300bc339968f300e3189a2252009950b3
:10391c000121043a995001362300bc335b68242200
:10392c00995c26229954cbe7bc23e358d9e70125af
:10393c005ae77b6826229a5c002a17d0013a262186
:10394c005a547b685a5c002a10d001239c46e344ed
:10395c00fb685a46d517da0f594699425541edb2d4
:10396c007b68db69002b1ad07b6042e1d9680029a7
:10397c000fd0b96020000af0c7f8002809d0f30076
:10398c00e3189a225200b96899500321043a9950cd
:10399c0001367b682422995c26229954d5e7dc23d6
:1039ac00e358e1e7092e00dd2de15346e35c0022ec
:1039bc000092452b00d926e12300ec335b682622cc
:1039cc009a5c002a20d0013a26215a542300ec3369
:1039dc005b685a5c002a17d001239c46e144230003
:1039ec00ec339c46d8684a46d217c10f4b468342eb
:1039fc004a41d3b2009363465b68db69002b22d04b
:103a0c002200ec325360fee0d968002913d0230069
:103a1c00ec33996020000af077f800280bd02300d3
:103a2c00ec339968f300e3189a2252009950042160
:103a3c00043a995001362300ec335b682422995cdc
:103a4c0026229954c8e7ec23e358d9e7019b00934d
:103a5c00d9e00023009300259b4699462e33ff3373
:103a6c009a462700dc3743460193cce04b46db6893
:103a7c00002b02d0019b002b06d0fb68002b5ed1e3
:103a8c00009b01931d003fe04b465b68d968002901
:103a9c0011d04b46996020000af036f800280ad065
:103aac00f300e3189a22520049468968995006217e
:103abc00043a9950013601239c46e0444b46da689f
:103acc004346db17d10f404690424b41dbb201938a
:103adc004b465b68db69002b2ad04a465360fb6877
:103aec00002b4ad0002d27d001239c46e244fb68d2
:103afc005246d517da0f514699425541edb27b68c3
:103b0c00db69002b36d07b605b46e35c452b44d8ed
:103b1c00092e42dc002da9d0019b002b3dd14b4638
:103b2c00db68002bb0d10195fb68002bdcd1ebe7f7
:103b3c000d33ff33e358d0e7092ed5dc01e0009bb1
:103b4c0001935b46e35c452bced87b68d968002992
:103b5c00cad0b960200009f0d7ff0028c4d0f30008
:103b6c00e3189a225200b96899500521043a9950e9
:103b7c000136b9e7fc23e358c5e7009dc4e70023f1
:103b8c00019300259a4698462e33ff339b46213be2
:103b9c009946a1442700fc37b6e79a235b00e3580b
:103bac00002b0bd0200000f0d7fe002806d003b06d
:103bbc003cbc90469946a246ab46f0bd26003d362d
:103bcc00ff36012596277f0003e0013508360a2dc4
:103bdc00edd03368002bf8d0e5550021200006f01d
:103bec000df80028f1d0e2e7fb68002b00d0a0e62e
:103bfc00019d2300ec33db68002b00d126e7009bf2
:103c0c00002b00d1cee65346e35c452bc5d8092edc
:103c1c00c3dc002de8d0009b002bb0d12300ec338b
:0c3c2c00db68002b00d0c0e60095ece740
:020000040000fa
:103c38001c2300201c00000000000000f0220020cf
:103c48002c000000010000004d0a0100535e000036
:103c58005391000000000000000000000000000078
:103c68000000000035c300006d1901004d0401007b
:103c7800959a000000000020940000000000000059
:103c8800c02200203000000001000000690e010081
:103c9800050c01004f1301006713010031150100e5
:103ca800000000000000000000000000000000000c
:103cb800b50601007b9d0000b96f0000940000204c
:103cc800d401000000000000680200200c00000081
:103cd800000000007402002008000000000000003e
:103ce80050220020380000000000000014200020ae
:103cf800a000000000000000ac230020020000002b
:103d08000100000001000000082200204800000017
:103d180000000000741200204803000000000000aa
:103d2800502300201400000000000000b4200020f0
:103d3800a000000000000000bc1500208002000068
:103d4800000000007c020020480100000000000084
:103d5800b02300200100000000000000882300209c
:103d68000800000000000000740a0020000800009d
:103d780000000000382300201800000001000000a7
:103d8800c4030020f0050020941801000000000082
:103d9800f00300200000000064230020140000004d
:103da80001000000b80f0100bc0f0100c00f0100a6
:103db800c80f0100cc0f0100c40300204802000016
:103dc80000000000882200203800000000000000e9
:103dd800781a002030020000000000003c18002083
:103de8003c02000000000000b12300200100000098
:103df80000000000b22300200100000000000000c5
:103e08009823002004000000000000007823002010
:103e18001000000000000000ae2300200200000097
:103e280000000000a81c00200002000000000000a4
:103e38009023002008000000000000000c0600206d
:103e48009801000000000000b42100205400000088
:103e5800010000001d0901005d150100a116010007
:103e6800bdd8000069cd0000f10f01000508010070
:103e7800556100002dad0000b31601001b130100b1
:103e88006b1801000d1201001de400004d1a01001d
:103e98009d0a010005f90000d10f01005f1a010019
:103ea8005b1a010035130100a4070020c0020000be
:103eb80000000000640a00200c0000000000000060
:103ec8009c23002004000000010000005421002071
:103ed80054210020600000000100000000000000e4
:103ee80090100100b01001007010010000000000e7
:103ef80000000000000000000000000000000000ba
:103f080000000000000000000000000000000000a9
:103f18000000000000000000000000000000000099
:103f28000000000000000000000000000000000089
:103f3800000000000000000000000000a023002096
:103f48000400000000000000a4230020040000007a
:103f580000000000700a00200400000000000000bb
:103f6800a81e00206c0100000100000043000000b2
:103f78000000000000000000000000000000000039
:103f880000000000000000000000000043000000e6
:103f98000000000000000000000000000000000019
:103fa80000000000000000000000000043000000c6
:103fb80000000000000000000000000000000000f9
:103fc80000000000000000000000000043000000a6
:103fd80000000000000000000000000000000000d9
:103fe8000000000000000000000000004300000086
:103ff80000000000000000000000000000000000b9
:104008000000000000000000000000004300000065
:104018000000000000000000000000000000000098
:104028000000000000000000000000004300000045
:104038000000000000000000000000000000000078
:104048000000000000000000000000001915010039
:10405800210e0100000000008cb30000f1180100df
:10406800f0180100f0180100f0180100f018010024
:10407800f0180100f0180100f0180100f018010014
:10408800f0180100ffffffffffffffffffffffff2b
:10409800ffff0000010041534349490000000000b0
:1040a8000000000000000000000000000000000008
:1040b800000000000000415343494900000000008f
:1040c80000000000000000000000000000000000e8
:1040d8000000000000000000a823002004000000e9
:1040e8000000000000000000000000002222222240
:020000040000fa
:1040f800f0b5de4657464e464546e0b585b0a64b78
:104108001c68187d002809d12378002b31d105b00f
:104118003cbc90469946a246ab46f0bd2378002b9e
:1041280000d0fae12200283200214b1cdbb2984271
:10413800edd028321500283d2d78002d01d1190029
:10414800f3e70231c9b2012911d0934a1175ff2b47
:10415800ddd09a00d318db00e4186379012b0ad06c
:10416800237b042bd3d89b008c4ad3589f4600212d
:10417800ebe70300ede7237b042b10d00023237328
:104188002023e35c012b00d1a1e10023237020222e
:10419800a3546371a370e37063702371b7e70022bf
:1041a8007d4b5a75eae7e088a3685b6a0321984764
:1041b8006061431cabd0a3681b692200784998470b
:1041c80002232373a3e7a3681b6860699847002844
:1041d8000fd02023e35c002b03d001222023e254dc
:1041e80095e7a3685b686069984760620323237357
:1041f800f3e72023e35c012b03d000222023e254c1
:1042080085e720000bf060f800232371f5e7624b87
:104218005b7d012b00d17ae701225f4b5a75636af7
:104228001b6919685f4b0126994204d880208000d9
:1042380009f020fe0600584d8022920000212869ce
:104248000df0dafa02222123e2542a6921001c31f6
:104258006069a36800969d680023a847e369013355
:1042680002d00423237352e700224b4b5a754ee7c2
:104278002123e356022b07d0002b0dd00022464bfa
:104288005a750323237342e7a368db6a002b00d126
:104298003de7206998473ae73f4b1f690023637061
:1042a800ff33ff33fb5c0026552b0dd03500ff2371
:1042b8009846394b5f683b78002b75d00022364b07
:1042c8005a750223237322e7ab33ff33fb5caa2b17
:1042d800ecd13b78eb2b32d0e1235b00f85c0df09e
:1042e800abf8060005006070e9235b00f85c0df090
:1042f800a3f8002804d00225354301366670edb2d4
:10430800f1235b00f85c0df097f8002805d0042332
:104318001d43edb2637801336370f9235b00f85ce9
:104328000df08af8002805d008231d43edb2637804
:1043380001336370002d00d0ebe00126b6e77b78ef
:104348003c2b03d0582b01d0fe2bc5d1bb78902b2a
:10435800c2d1012363705223fb5c462b00d1bae023
:104368005323fb5c412b00d1bae05423fb5c542b54
:1043780000d1bae03623fb5c462b00d1bae03723e4
:10438800fb5c412b00d1bae03823fb5c542b00d1f5
:10439800bae000268ae7c04638230020ec15010061
:1043a800c9020100ff0100005e4b1b699b4623798f
:1043b80001332371237e9b005b4a9b5803931800ab
:1043c8000df056fac2b29146ba1c0292ff2303407e
:1043d8009a461a00039902980cf009fba3785246f2
:1043e800b81883704b460133dbb2fb1822793032a0
:1043f8009a704b460233dbb2fb1800229a70bc61fc
:1044080043467b702a1e2cd00022eb0709d40122d8
:10441800ab0706d402226b0703d400222b0700d572
:1044280003224346ff2b1cd0530040495b5a594690
:10443800c95c79705b44d97a0906987a000409182e
:10444800587a00020918187a09187961d979090681
:104458009879000409185879000209181b79cb18b3
:104468003b61002e2dd0324be178197001325a7021
:1044780001233b704346ff2b00d11fe7294b9d6862
:10448800227e2b7a9a4200d018e76e68711d029836
:104498000df0e4f8002800d010e76a7a29680023b4
:1044a8000093300004f0e4ff002800d006e7214b19
:1044b8001b68002b00d101e71e4a526829689847fb
:1044c800fce61b4be2781a7000225a70d0e72000f5
:1044d8000af0fafe59e6002600250b239846e8e67e
:1044e800002600250b239846e3e6002600250b232b
:1044f8009846dee60026002506239846d9e60026db
:10450800002506239846d4e600260025062398466b
:10451800cfe6012601239846cbe60022014b1a7507
:10452800002316e63823002064230020ac1901007c
:08453800ec03002088230020a1
:020000040000fa
:10454000f0b58bb001920593ca0f0c034b00060027
:10455000240b5b0d0492039245d0c64a934265d06a
:104560008022410f12040a43e4001443c24ac500ea
:104570009b1800270293059b019a1e035800db0f2e
:10458000360b400d059360d0ba4b984200d180e0c5
:104590008023520f1b041343f6001e43b64a019baf
:1045a0008218db009446002205980499414001914d
:1045b0000299b80061441043079101380131069116
:1045c0000e2879d80df062f8740074007b01710137
:1045d0007101bc017b017101bc0171017b016f01a3
:1045e0006f016f0164012500054326d0002c13d014
:1045f00020000bf0dbfd01000b391c2910dc1d2312
:1046000002005b1a31003500083a9440d9409540c9
:104610000c439a4b1b1aace70bf0c8fd2030eae7bd
:1046200003003400283b9c400025f2e705002543a9
:1046300007d00500029303279de72c000295012770
:1046400099e72c000293022795e7019b334327d07b
:10465000002e13d030000bf0a9fd01000b391c29ee
:1046600011dc1d2302005b1a0199083ad940019b15
:10467000964093400e43814a121a93e710000bf0c4
:1046800095fd2030e9e70300019e283b9e40002372
:10469000f1e7019b334307d013008446032283e7ed
:1046a0001e009c4601227fe71e00844602227be713
:1046b00034001d001700f8e0190c9bb2029119009c
:1046c0002a0c514318008c46029f0299adb26843f0
:1046d00051436f4304916744010cc91903908c4501
:1046e00006d9049f380080277f02bc4660440490ae
:1046f000684680890f0c090409180991310cb6b27b
:10470000039130003100bc46039f694350437d4311
:104710007a432d180f0c7d19a84202d9802040023f
:104720001218280c82182d0489b205926a18089272
:104730001800089962468c46029f210ca4b260437f
:104740004b43674362449446029dff18020cd21902
:104750004d43934202d980235b02ed183700130cbe
:104760005b190293039b67434e435c435943a4196f
:104770003b0c120480b21c191018a64202d98023e7
:104780005b02c918049b220463441e00089bbfb24d
:104790009e42ad418619d2198642bf410298059bbf
:1047a00084466d42d218ab189c440393059b604627
:1047b0009a429241039b5242ab429b415b427f42f1
:1047c0001a43029b3818240c1219b842bf419c4569
:1047d000a4417f4264423c4314196418c30d64022f
:1047e0001c43099b75021d43691e8d41f60d35431f
:1047f00040020543e30167d501226b0815401d43c4
:10480000e307d4401d43069b1d4a9b18002b5edd29
:104810006a0709d00f222a40042a05d02a1daa427d
:10482000ad416d4264191500e20106d58022d20027
:104830009446144b1c40069b6344134a934200dd8c
:104840008be06207ed081543e408002124030a0dfc
:104850001205240b14430d4a5b0514405b082343e7
:10486000019a5b00d2075b081343280019000bb0c4
:10487000f0bdc046ff07000001fcffff0dfcffff7d
:10488000ff030000fffffffefe070000ffff0f8099
:1048900080221203144257d0164255d134001d0015
:1048a000059b039350e0049b0193022f55d0032fe7
:1048b00051d0012fa7d100252c002b00c5e71d00ea
:1048c000059b34000193f5e6079b06939be70122c5
:1048d000d21a382aefdc1f2a20dc202321009b1a61
:1048e00028009d409940d0406b1e9d41d44001431b
:1048f0000d436b0709d00f232b40042b05d02b1d34
:10490000ab42ad416d4264191d0080231b0423405e
:1049100000d196e700240123250096e71f21494294
:10492000cb1a2100d9400023202a03d040239a1a11
:10493000230093401d436b1e9d4100240d43d8e787
:10494000802400252403039580231b031c43039b21
:104950000193034b79e7019ba3e700252c00f8e7bf
:04496000ff0700004d
:020000040000fa
:10496400f0b5d6464f464646c0b504009a235b00d0
:10497400c5580300ac335f68466e2b7f072b08d005
:10498400c26e9046062b00d9eae19b00cc4ad3586c
:104994009f46ab6afb60fb69002b0fd0ac346360ad
:1049a4000136ff363f23f371fb232b736b69002b16
:1049b40000d1d3e128009847002085e0ac3467603b
:1049c400eee703232b7300232b622b681b787f2bca
:1049d40039d83a7a0f2313403b7201232b77802274
:1049e4005200b11889464b71b35c03218b43b35415
:1049f40043469b897f229343424693819389252290
:104a0400ba5c1343424693812968082220000cf0c3
:104a140060fe43461c600023424653602c23fb5c2b
:104a24001b07e022d2051340082213434246536079
:104a34003f234a46d3713c235372402353711023be
:104a44001371012040e03a7a80235b4213433b72a6
:104a5400c3e7731cff33db79db0618d50136ff3659
:104a64001023f3716b68002b02d0ab68002b03d1c9
:104a740004232b77002027e001233b7400237b6170
:104a840003232b77200008f0aff801201ce0013647
:104a9400ff363f23f37106232b77fa232b7300236e
:104aa4007b612300ac335a68a96ad1605b68db6917
:104ab400002b00d14ce1ac3463606b69002b00d156
:104ac40050e12800984700201cbc90469946a24615
:104ad400f0bd731cff33db791b0708d50136ff36a5
:104ae4000823f371fd232b7306232b77d7e7731c5d
:104af400ff33db799b0608d50136ff362023f3719b
:104b0400ff232b7306232b77c9e7731cff33db7951
:104b1400db0700d4a0e0731cff330522da71002305
:104b24007b6143465b689b049b0c99463b7a7f2bd5
:104b340044d849462b6a4b442b626a6a4a446a62e7
:104b4400aa68934269d300237b6101233b74052245
:104b54002a7780214900721853716b6840460360bc
:104b640083897f2083434046838183892520385c61
:104b7400034340468381002343602c23fb5c1b07d3
:104b8400e020c005034040464360735c0320834338
:104b940073543f23d3712d2353723b7a7f2b76d8e2
:104ba4000a00731840211971b35c01210b43b354fb
:104bb4000136ff3610233371012085e76b682a6aba
:104bc4009446634418004a4621000cf082fd2b6a87
:104bd4004b442b626a6a4a446a62ba699145b4d307
:104be400a9688b42b1d2ab69994501d09145acd14a
:104bf40003232b733a7c012353403b74ab696a6ae9
:104c0400934206d903232b77200007f0edff012000
:104c14005ae702232b77002056e7ab69994202d06a
:104c2400bb69994291d103232b733b7c01225340ee
:104c34003b74ab696a6a934207d802232b77032338
:104c44002b7300237b6100203ee703232b77200096
:104c540007f0caff012037e7731cff33db795b07da
:104c640000d472e70136ff360423f37102232b7755
:104c74007b6901337b61134a934204d906232b7762
:104c8400fe232b730be702232b7700201ce78022e3
:104c94005200b31840215971b35c02210b43b35441
:104ca40086e7731cff33db791b070dd50136ff360e
:104cb4000823f371fd232b7306232b77efe6c046fd
:104cc40028120100cf070000731cff33db799b0619
:104cd40008d50136ff362023f37106232b77ff23f3
:104ce4002b73dce6731cff33db79db0714d5013649
:104cf400ff360523f37106232b7700232b733b7aae
:104d04007f2b00d8cbe62b6aaa689a4200d8c6e665
:104d140001222a73ab60c2e6731cff33db790020e7
:104d24005b0700d4d0e60136ff360423f3712b77fa
:104d34007b6901337b61fa22d200934204d90623b2
:104d44002b77fe232b73aae604232b770020bbe6e4
:104d54002300ac33ac22a2585a60aee60020b3e67e
:084d64000020b1e60020afe6db
:020000040000fa
:104d6c00f0b5de4657464e464546e0b587b00600e0
:104d7c00884603689a460b782f2b15d05c2b15d0e0
:104d8c0053469b69836043461b781f2b10d9ad4b50
:104d9c009b4641e101331a782f2afbd05c2af9d0cb
:104dac0098460023b360eee70b00f4e70b00f2e744
:104dbc0080222f23f2540021300008f045f92be01b
:104dcc0081b21f2947d92f292fd05c292dd07f29bb
:104ddc0010d9fe2c1fd86300d953013405a80bf051
:104dec0077ff431c17d0a842ead96300020cda53b0
:104dfc000134e5e70004000c222800d19ae12a23b3
:104e0c005a460d32984204d001321378002bf9d156
:104e1c00dfe7002bddd0062007b03cbc904699465e
:104e2c00a246ab46f0bd01330593059b1a782f2a99
:104e3c00f9d05c2af7d000239946059b9846012ca3
:104e4c000cd0022c16d0002c00d171e17e4be31853
:104e5c005b00fb182be004239946eee73b882e2bd6
:104e6c00f4d163000022da533500243500232e21bf
:104e7c0020200be07b882e2be8d13b882e2be5d114
:104e8c00efe72a70013301350b2b04d00a009c424a
:104e9c00f7d80200f5e720234a461a4313002f22c5
:104eac00b354a0e0013c023b002c00d140e11a8835
:104ebc00202af7d02e2af5d063000022fa52002cbb
:104ecc00a9d0398820292ad1ba1c002501350232f3
:104edc00911e09882029f9d0002d21d003224946a2
:104eec0011438946fa18023a12882e2a08d0043b3c
:104efc00fb18013c002c03d0023b5a882e2af8d117
:104f0c00300024300b2220210cf0a2fc082301934a
:104f1c000023029303932b003d0027000be0002598
:104f2c002e29dfd1dae7bc420ed04b4603221343c5
:104f3c00dbb2994623005c1c5b005b5b002b2cd026
:104f4c00202bf2d02e2beed0029a01998a4216d247
:104f5c00bc4200d1f0e07f2b7ad8ff2b00d8a2e026
:104f6c0001990a00013a0298904200d293e04b4614
:104f7c0003221343dbb2994623000291dbe7019b2a
:104f8c000b2b50d0bc4200d1dae04b46032213432a
:104f9c00dbb29946bc4200d8d2e02423f35ce52b6b
:104fac004bd0019b082b00d1a4e00c23039a134097
:104fbc000c2b00d1a3e0d3439b0700d19fe04b46c1
:104fcc009b070dd4039bdb0703d510234a461a43da
:104fdc009146039b5b0703d508234a461a43914627
:104fec002f234a46f254300003f046fe2f23f35c85
:104ffc00002800d088e05b0700d50de7b379db060d
:10500c0000d493e0534638337269d105c90d591851
:10501c0050460bf034ffb060434605933368df68ad
:10502c0000240a4ddae603234a461a439146242308
:10503c00f35ce52bb9d10b23019305222423f25405
:10504c00afe7c04630f50000ffffff7fffff000019
:10505c000222494611438946b621ff3118000af055
:10506c0027fc0300020603d57f231840394b1b5c39
:10507c00ff2b00d974e7002b15d14b4603221343a9
:10508c00dbb29946029a5f23511c0291b21824326a
:10509c00137023004fe702990a0001327118243172
:1050ac00180a0870f0e72c222b4919312b2be4d06d
:1050bc0090b298421bd001310a78002af8d11a001c
:1050cc00413a92b2192a03d802220399114303914f
:1050dc001900613989b2029802001929d4d8012229
:1050ec00039911430391203b9bb20200cce7002aa9
:1050fc00c3d1e4e7039b9b00dbb2039355e7022388
:10510c004a461a4391465ae7042800d084e69a0688
:10511c0007d55b0700d47fe780222f23f2540020b1
:10512c007ae65b0700d577e6052075e6052073e681
:10513c0000233b8006206fe6019b0b2b00d172e70e
:10514c00039b9b00dbb203933b000b2201920822d2
:0c515c000292f0e6a8e1000030f500002f
:020000040000fa
:10516800f0b5de4657464e464546e0b587b00f00d7
:10517800160000230b600af0d3f805000b23002863
:1051880023db8300ba4a9c58002c00d169e13c60bb
:1051980001239e432378002b0cd060780cf057fc39
:1051a800c30707d40023002e0fd0430700d45ae1c9
:1051b8000a230ae0002323706b00ae4a985c6070f3
:1051c8000cf00afb0323c20707d5180007b03cbc44
:1051d80090469946a246ab46f0bd002e02d00a235f
:1051e8004207f2d46d00a34b5d196f7800212000af
:1051f80009f0d2f8022802d031d8002f2fd00d2381
:10520800042fe2d82600ff36ff36002530000cf0c8
:1052180096f902abe85010360435102df6d13d0052
:105228006b1e9d417d1bae0002ab9c4666440fe0a1
:10523800200009f0b1f8002f11d1012804d8042862
:1052480013d10123c1e7032001350436032d06d805
:1052580031680029ecd1002ff5d00d23b5e70428db
:1052680000d102e10d230128afd84423e35c1b02df
:105278004322a25c1a438021890012b20d238a427c
:10528800a3d14f23e35c1b024e22a25c1a43914632
:1052980004d120005c300cf052f98146676b4b4614
:1052a80023624823e35c9846a3705a1e0d23012a03
:1052b80000d98ae74523e55caab262810d23002a5a
:1052c80000d182e76a1e154200d07ee74a23e35cdc
:1052d8001b024922a25c1a43934622810d2312071e
:1052e80000d072e74c23e05c00024b23e35c1843d8
:1052f80003d1200058300cf022f94723e35c1b024d
:105308004622a65c1e430d23002e00d15de74346ce
:105318004a4653431a0001935b461b099b19904662
:1053280098440d23404500d24fe74346c01a290050
:1053380008f0a0fd0d23002800d146e74e4b0022bf
:105348009246984201d803239a464c4b984201d87a
:1053580002239a464a4b984200d8a3e00d235246ae
:10536800002a00d131e7851ce5616762be19a66293
:105378004346fb182363032a00d09ce06323e35cc5
:105388001b026222a25c1a430d23002a00d01ce7ec
:105398005a46002a00d018e7200064300cf0cff8f5
:1053a800e062aa00374b9c466244520a0d2391459d
:1053b80000d20ae701235b426361236180232371e2
:1053c8006923e25c12026823e35c1343012b2cd1ae
:1053d800791c20000bf01bf8002826d1002323712c
:1053e800294be25c1202013be35c1343274a1bb2e0
:1053f80093421ad1200038300cf0a1f8244b98427f
:1054080013d187239b00e0180cf099f8214b9842a0
:105418000bd188239b00e0180cf091f86061892378
:105428009b00e0180cf08bf82061534623701a4a51
:10543800138801339bb21380e380184be360002389
:10544800a361174b1b689c4202d10022144b1a60bf
:105458000023bae603236b435b08012215405d195c
:1054680036e00c23b1e60023afe60123ade6c046e3
:1054780098230020ec030020f5ffff0ff5ff000044
:10548800f50f0000ff0100003702000055aaffffda
:105498005252614172724161ae230020a81c002063
:1054a80078230020851ce5616762be19a66247441f
:1054b800276301239a460d235a46002a00d184e621
:1054c800019b9c466644e6625346022bc2d16d009e
:1054d800074b9c4665446d0a0d23a94500d274e626
:1054e80001235b4263612361802323719de7c046ea
:0454f800ff010000b0
:020000040000fa
:1054fc0030b583b00400e623c3560f2b01d003b0a4
:10550c0030bd9233ff33c25c072af8d89300c64ae9
:10551c00d3589f46f023c25c8021ce23c154062170
:10552c000300ce3359709a700222da7000221a717d
:10553c005a7109229a710022da7102008c320261ce
:10554c00c36009234361002303620322a133ff33a9
:10555c00c25401000c31836edb68406d9847002803
:10556c00cdd0ff22e623e254606da36e1b6a9847f0
:10557c00ae4b1b68002bc2d0ac4a526800210120f4
:10558c009847bce71823c356002b3ad17023c35c51
:10559c00002b31d103008c33db795b062cd4030058
:1055ac008c331a7a5200cb005918c900a04b5918e9
:1055bc000b6a9a4220d9d823c258002a18d0a823a3
:1055cc0069460b710f21e623c1540021ba33c15433
:1055dc008368c06c94696a46a047944b1b68002b87
:1055ec0000d18ce7914a526800210020984786e749
:1055fc00ff22e623c254f0e70422d0235b00e254de
:10560c007de7002b00db7ae7836e1b6a406d9847c1
:10561c00ff22e623e254854b1b68002b00d16ee77a
:10562c00824a526800210120984768e7f423c05849
:10563c00002801d00cf006f823008c339a78dd7822
:10564c002d021543e81d0bf0f3fff423e050002866
:10565c0039d0f023e25c1133ff339c466244802145
:10566c00ce23e15406212300ce3359709a70120ace
:10567c00da7000221a715a719d712a0ada7120614e
:10568c00e3606561002323620522a133ff33e254fa
:10569c0021000c31a36edb68606d9847002800d1a7
:1056ac002de7ff22e623e254606da36e1b6a984738
:1056bc005e4b1b68002b00d121e75c4a526800212d
:1056cc00012098471be7ff22e623e254606da36e8e
:1056dc001b6a9847554b1b68002b00d10fe7534aa8
:1056ec00526800210120984709e71823c356002b64
:1056fc0013d000db03e7836e1b6a406d9847ff22d3
:10570c00e623e254494b1b68002b00d1f7e6474acd
:10571c005268002101209847f1e60622a133ff339d
:10572c00c254ece6f423c35859790022ce23c25458
:10573c0009202300ce33587099700021d97019714b
:10574c0059719971d9712261e360626122620722f9
:10575c00d0235b00e25421000c31a36edb68606d3a
:10576c009847002800d1cae6ff22e623e254606d78
:10577c00a36e1b6a98472d4b1b68002b00d1bee60d
:10578c002a4a5268002101209847b8e61823c356cc
:10579c00002b15d000dbb2e6a8236a461371031d5b
:1057ac000093d823c358002b04d09d698368002133
:1057bc00c06ca84700232371d0225200a3549ee64c
:1057cc000af0dcfaf423e1580022ff258878cb7824
:1057dc001b0203438818c5540132072af6d1200056
:1057ec0006f0e4fb002814d1a8236a461371231d8c
:1057fc000093d823e358002b05d09d69a3686a4613
:10580c000021e06ca84700232371d0225200a3543e
:10581c0075e6f423e3585a799a23ff33e2540123b3
:10582c006a461371e3e7c046700f01005023002055
:04583c00082200201e
:020000040000fa
:1058400070b584b0431c0fd0ff240440642363432d
:10585000bb4a9b5c002b07d064226243b84b9b1869
:105860001b7e5bb2032b01d004b070bd6422624387
:10587000b34b9b184e331a780c2af5d89300b14ad3
:10588000d3589f4664216143ad4a531818004c30e9
:1058900006780630212505700130ff2505701d00b2
:1058a00054350020288002352e80023528801800cb
:1058b00051300025057052318a18d8690193a24be6
:1058c0000093002303a904f063ff0128ccd16420d6
:1058d00060439b4c24184e3402232370c4e7642297
:1058e0006243974b9b1851331b78002bbcd064222a
:1058f0006243934b9b185a331b785bb2012b26d023
:10590000642262438e4b9b1807221a66ff221a7686
:105910000422642161438a4b5b18dd6a002d0bd0a1
:105920006420604301002831854bc9181b18586c4e
:105930001b6c00930023a84764206043804c24180c
:1059400022002832002313704d3423708ce77c4be7
:105950009b184e3303221a7086e764226243784b09
:105960009b181a004f3200211170186a220002a9f8
:1059700003f00cff012800d076e764206043704cf0
:1059800024184e34042323706ee7642262436c4b68
:105990009b184f331b78002b00d165e7684ca41887
:1059a0004e34052323705fe764226243644b9b18e7
:1059b0001a004f3200211170586a220002a903f028
:1059c000e5fe012800d04fe7642060435c4c2418ba
:1059d0004e340623237047e764226243584b9b18da
:1059e0004f331b78002b00d13ee764226243544bb7
:1059f0009b181a004e32002111701b7b0222002bd3
:105a000087d1042285e7642262434d4b9b181a001c
:105a10004f3200211170186a220002a903f0b6fe6d
:105a2000012800d020e764206043454c24184e3400
:105a30000823237018e764226243414b9b184f33bd
:105a40001b78002b00d10fe7642262433c4b9b186c
